:10000000C8110020C1000000793700007D370000D2
:1000100000000000000000000000000000000000E0
:100020000000000000000000000000008137000018
:10003000000000000000000083370000853700004A
:1000400087370000893700008B3700008D370000AC
:100050008F3700009137000093370000953700007C
:1000600097370000993700009B3700009D3700004C
:100070009F370000A1370000A3370000A53700001C
:10008000A7370000A9370000AB370000AD370000EC
:10009000AF370000B1370000B3370000B5370000BC
:1000A000B73700000000000000000000B937000072
:1000B000BB3700000000000000000000000000004E
:1000C000024880470248804702480047D9000000A4
:1000D000913400006939000066486749016067484B
:1000E0002021674A674B0024FF27056814601D60C4
:1000F0001E683D403E40B54204D104340430A14264
:100100000DD0F2E7056814601D601E683D403E405A
:10011000B542FED104340430A14200D0E5E73021DD
:10012000594F056814601D601E683D403E40B54251
:10013000E8D104340430A1420DD0F2E70568146020
:100140001D601E683D403E40B542FED1043404307F
:10015000A14200D0E5E74748002101604B4C4C4DDF
:100160004C4E4D4F4D4800684D49096842184D4B63
:10017000D218D2434C4B1B68934200D00FE0FF21B2
:100180000140216049490140090A2960484901406C
:10019000090C316047490140090E39601DE04648AD
:1001A00000684649096842183E4BD218D243444B76
:1001B0001B68934200D00FE0FF21014021603B49C2
:1001C0000140090A29603A490140090C3160394966
:1001D0000140090E396000E0FEE73A4F3A480068F6
:1001E0003A490968C943814200D003E0FF21014038
:1001F00039601AE03648006836490968C9438142C7
:1002000000D003E0FF21014039600EE0FEE73248F4
:100210000168022211409142F9D007E02E4801689E
:10022000022211409142F9D022E0F0E72B482C49FC
:10023000016029482B4901602B48002101602B48AF
:10024000002101602A482B4901602B4800210160F0
:100250002A48002101602A48002101602948002124
:1002600001601E481E4901601B4827490160D5E70F
:1002700070470000E0FF0F0055AAAA55000E0800C5
:10028000E8FF0F00F0FF0F00FF81FF812C420140CB
:10029000304201403442014038420140C00D080064
:1002A000C40D0800FFFFFFFFCC0D080000FF000099
:1002B0000000FF00000000FFD00D0800D40D080072
:1002C000DC0D080040420140E00D0800E40D08008C
:1002D000E80D0800EC0D0800484801404448014082
:1002E000A55AA55A5BA55AA5584801408C4801401B
:1002F0008848014000006400204801402448014033
:10030000284801402C4801405AA55AA5F1B5A6B08D
:100310000E0015001F004C487844FF302D3003C8F4
:1003200024AA03C214ACA6600020E06201E0009899
:100330002D1800206946C88024AB0022D243290032
:1003400001A8801C01F047F90090012805DA2878FF
:10035000411E8941C943C90F00916846C0882528BC
:10036000009800D1401E012811DB2E000490317846
:10037000A068269A9047A060002800D107E1E06AB3
:10038000401CE062761C0498401E0490EFD1684641
:10039000C088252807D100206061A061E06120624B
:1003A0006062A06208E06846C0880028BFD1E06AA9
:1003B000EFE00100012008436D1C29782029F8D0C6
:1003C00023290ED02B2904D02D2907D030290BD07A
:1003D0000DE001000220084380B2EDE70100042097
:1003E000F9E701000820F6E701001020F3E72A29C9
:1003F0000FD1396839600A68091D39606263002AC3
:1004000005D55142616301000420084380B26D1C90
:1004100012E0002161630AE0626B844B9A4205D0CE
:1004200093009A1852005118303961636D1C297875
:100430000A00303A0A2AEFD329782E2906D0002163
:10044000C943216321E000BFEC3300006D1C297813
:100450002A2907D1396839600A68091D3960226381
:100460006D1C12E0002121630AE0226B6F4B9A425F
:1004700005D093009A1852005118303921636D1C31
:1004800029780A00303A0A2AEFD320872E783100E3
:10049000044878440E3001F0ACF8002804D06D1CFC
:1004A00003E000BF9833000000263A202654205C69
:1004B000682804D12978682901D1622005E06C28D8
:1004C00006D128786C2803D171203A2160546D1C24
:1004D00005A820612E786D1C300025382AD01C38E4
:1004E00000D1EAE0001F022800D8E6E0133800D16E
:1004F00008E1093800D1E0E0801E00D16CE1401E27
:1005000000D146E1401E022800D8D6E0001F00D1ED
:100510003FE1401F00D1A2E0401E00D1F2E0401EAA
:1005200039D0C01E0BD0801E00D1EBE0C01E00D120
:10053000E8E073E1252069460875012078E13A205A
:10054000205C6C283868386017D00168001D38605E
:10055000E160266B002E03D5084601F054F80AE04E
:1005600032000021E06801F056F8002802D0E1686E
:10057000401A00E03000A0615BE10268001D3860B5
:1005800014A9269800F03CFA002800D451E100207C
:10059000C04327B0F0BD386838600268001D38607D
:1005A0000020C0430021104014AA03C205A8E06047
:1005B000206900903C2214A803C802AB03C302A820
:1005C00003C8002904D1002802D1206B00281DD0C7
:1005D000521E02A803C80007000F3030C0B23A28EC
:1005E00000DB27300099885402A803C800090B07D4
:1005F0001843090902AB03C302A803C801D10028AC
:1006000004D0E068009989188842E1D33C20801A20
:10061000A06100998918E160216B88420ADA081A02
:100620002062208F02490140218702E1FFFFFF7F06
:10063000EFFF0000002900D4FBE03821615C1422A8
:100640000A40102A00D0F4E0616B6269891A226ABC
:10065000891A0A1A012A00DAEBE02262E9E03A205C
:10066000205C622819D0682806D06A280CD06C2833
:100670001BD0712808D018E0386838600168001D68
:100680003860E06A0880D4E0386838600268001D8D
:100690003860E06AC11703C2CBE03868386001688F
:1006A000001D3860E06A0870C3E03868386001688F
:1006B000001D3860E06A0860BBE03A68D21D072080
:1006C00082433A6003CA3A6014AA03C2002902D5E1
:1006D00060692D2109E0208F810702D560692B21F7
:1006E00003E0C00705D56069202105AA1154401C0C
:1006F000606105A861694018E060310014A800F04D
:10070000A9FB96E03A20205C6C280BD0712801D020
:100710006A2807D13A68D21D072082433A6003CA8B
:100720003A6005E0396839600868091D39600021C0
:1007300014AA03C23A20205C682803D114A803C875
:1007400080B20BE0622803D114A803C8C0B205E050
:10075000742801D07A2804D114A803C8002114AA4F
:1007600003C23820205C00072DD514A803C8002937
:1007700001D1002827D020203043782823D1606978
:10078000302105AA1154401C411C616105A90E5479
:1007900019E039003A20205C00F0FDF814AA03C2E9
:1007A000002902DA60692D2109E0208F810702D536
:1007B00060692B2103E0C00705D56069202105AAE7
:1007C0001154401C606105A861694018E060310067
:1007D00014A800F0A7FA2CE03A20205C6C2809D07D
:1007E00001206061386838600168001D3860684623
:1007F00001751EE0386838600168001D3860684681
:100800000180002069464880C04320636A4614A9DD
:10081000269800F0F5F800280BD5B8E625206946A3
:10082000087501206061300003D005A846700220E1
:100830006061606B6169401A216A401AA169401ABF
:10084000616A401AE169401AA16A401A049038208E
:10085000205C400711D420206946087104980128C3
:100860000BDB049E012301AA14A9269800F09BFE2D
:10087000002800D08BE6761EF4D1606905AE002812
:1008800010D000903178A068269A9047A060002888
:1008900000D17CE6E06A401CE062761C0098401EB5
:1008A0000090EFD1302069460871266A012E0ADBDC
:1008B000012301AA14A9269800F075FE002800D093
:1008C00065E6761EF4D1E668A069002810D0009095
:1008D0003178A068269A9047A060002800D156E69B
:1008E000E06A401CE062761C0098401E0090EFD148
:1008F000302069460871666A012E0ADB012301AACD
:1009000014A9269800F04FFE002800D03FE6761E7E
:10091000F4D1E068A1694618E069002810D0009081
:100920003178A068269A9047A060002800D12EE672
:10093000E06A401CE062761C0098401E0090EFD1F7
:10094000302069460871A66A012E0ADB012301AA3C
:1009500014A9269800F027FE002800D017E6761E7E
:10096000F4D13820205C400700D4E2E4202069461E
:1009700008710498012800DADBE4049E012301AA2F
:1009800014A9269800F00FFE002800D0FFE5761E7F
:1009900000D1CEE4F2E70A00622822D0682819D0FC
:1009A0006A2808D06C2823D0712804D074281FD05E
:1009B0007A2808D01CE01368DB1D072083431360EE
:1009C00003CB13607047116811600868091D11603E
:1009D00000217047116811600868091D116000B29C
:1009E0000BE0116811600868091D116040B204E055
:1009F000116811600868091D1160C1177047000077
:100A0000F4B59AB007000C00206B002800D50E4802
:100A1000039000F00CFE616B0818069009487844BA
:100A2000223003C807AA03C23820205C400702D442
:100A3000069841280AD209A802904020069000207A
:100A4000059012E0002E0000FFFFFF7F00F0F4FD94
:100A500002900028F3D10020C04361E11A98801C65
:100A60001A9003980199401A03900398012800DA1C
:100A7000D0E007AA1A98018800A8401C00F038FEB0
:100A80000190002800D5E2E01A980088002804D1DF
:100A90000198401E019000D5D9E003980199884241
:100AA00000DAB7E060690699019A8218914200D392
:100AB0009FE0002161634142206A081AA169401A3F
:100AC000616A401AE169401AA16A401A049038200C
:100AD000205C400711D42020694608700498012842
:100AE0000BDB049D01236A462100380000F05BFD0A
:100AF000002800D0ABE06D1EF4D16669029D002E87
:100B00000CD02978A068B847A060002800D19EE0EA
:100B1000E06A401CE0626D1C761EF2D1302069460E
:100B20000870256A012D0ADB01236A46210038007E
:100B300000F039FD002800D089E06D1EF4D1E56891
:100B4000A669002E0BD02978A068B847A0600028BD
:100B50007DD0E06A401CE0626D1C761EF3D130202F
:100B600069460870656A012D09DB01236A46210088
:100B7000380000F018FD002869D16D1EF5D1E0683D
:100B8000A1694518E669002E0BD02978A068B847FE
:100B9000A06000285BD0E06A401CE0626D1C761EFD
:100BA000F3D1302069460870A56A012D09DB0123C5
:100BB0006A462100380000F0F6FC002847D16D1E7F
:100BC000F5D13820205C400710D5202069460870F8
:100BD000049801280ADB049D01236A46210038009D
:100BE00000F0E1FC002832D16D1EF5D10020059007
:100BF0006061019A00A9491C02986369C01800F05D
:100C000083FD60690199401860611A980088002886
:100C100000D023E7059800287BD1606B6169401AFA
:100C2000216A401AA169401A616A401AE169401AB2
:100C3000A16A461A3820205C400711D4012E0FDB30
:100C400035002021A068B847A060002803D100200B
:100C5000C04305905DE0E06A401CE0626D1EF0D18B
:100C60006369029A2100380000F09DFC0028EED153
:100C7000256A012D0ADB3021A068B847A060002852
:100C8000E5D0E06A401CE0626D1EF4D1A369E26821
:100C90002100380000F087FC0028D8D1656A012DBA
:100CA0000ADB3021A068B847A0600028CFD0E06AF6
:100CB000401CE0626D1EF4D1E369E068A16942184E
:100CC0002100380000F06FFC0028C0D1A56A012D7A
:100CD0000ADB3021A068B847A0600028B7D0E06ADE
:100CE000401CE0626D1EF4D13820205C40070DD519
:100CF000012E0BDB35002021A068B847A06000283A
:100D0000A5D0E06A401CE0626D1EF4D10020606155
:100D10006063029809A9884201D000F023FD05987C
:100D20001BB0F0BDF3B583B0006900906846027C4B
:100D30006F2A01D1082406E020211143782901D02F
:100D40000A2400E010243C25039803C806000F0085
:100D5000642A01D0692A07D1002905DA0020002180
:100D6000801BB94106000F00002F10D1002E0ED1BC
:100D70000398006B00280AD1082C3AD10398382137
:100D8000405C000735D53B253020009930E06D1ED2
:100D90000195300039002200E31700F027FD3032C2
:100DA000D2B23A2A03DB6846007C51381218009808
:100DB0004255300039002200E31700F017FD06000D
:100DC0000F0001D1002E05D00398C0680099491981
:100DD0008842DCD3082C0CD103983821405C0007F2
:100DE00007D50098405D302803D06D1E3020009953
:100DF00048553C20401B0399886100994919039A82
:100E0000D1600399096B884209DA081A03990862CC
:100E10000398008F0E4901400398018715E00029CF
:100E200013D503993822895C14220A40102A0CD168
:100E30000399496B039A5269891A039A126A891AAB
:100E40000D1A012D01DB0398056205B0F0BD00000D
:100E5000EFFF0000F3B591B006AA03C802AB03C3CD
:100E600012A8007820210143009161290BD011982C
:100E7000006B002801D5062003E004D1672902D1C8
:100E8000012011990863119840684100490DA64B53
:100E9000994225D1000310D11198006800280CD187
:100EA00003201199886112A8007861381A283AD372
:100EB0001F4878447A3000900BE003201199886134
:100EC00012A8007861381A2829D31A487844643067
:100ED0000090032200991198C06800F015FCE9E128
:100EE000012919DB914B034091481843119B58602D
:100EF00090480D1A0026F6430098612827D11198D2
:100F0000C06830210170811C119BD96012A9097839
:100F1000612915D1782114E000260025ECE7064868
:100F200078441430D4E7054878441030C3E700BF54
:100F3000282900001C29000014290000182900009D
:100F40005821417011984069801C11994861002E08
:100F500003D1002468468680A3E10098612800D070
:100F60009EE01198046B002C01D5212400E0641C44
:100F700024B2601C00901198C0C802A803C80022C7
:100F8000002300F068FC02D280200006474002A83F
:100F9000C0C0281F6946888000260E7606A8471C18
:100FA0000098012835DB02A803C8002280235B03D8
:100FB00000F06AFC2DD81C2102A800F07FFC02A8DA
:100FC00003C800F0BBFC05000098C01F009001287A
:100FD0000ADB280000F0DCFC02000B0002A803C8BA
:100FE00000F04DFD02AA03C2F81D072104E0401ED7
:100FF0002A07120F02702D11012D01DB491EF6D5B3
:10100000491E02D4401E0670FAE7C71D0098012849
:10101000C9DA06A8401C391A06A8421CA14200DA07
:101020000C0024B2200032D4884205DA06A909183F
:101030004978082900DB0F2606A9091801E0641E7B
:10104000491E401E0B78B342F9D00F2E04D106A9D9
:1010500009184B785B1C4B70002806D506AA641C47
:10106000019800B2001D6946888024B2601E0ED42B
:1010700011180B783033DBB23A2B03DB12AD2D782D
:101080003A3D5B190B70401E491E0028F1D511989E
:10109000006B002800D404E1601E1199086300E190
:1010A00002A803C80022002300F0D5FB06D202A844
:1010B00003C880221206514002AA03C22DB27E4804
:1010C00068437E4900F068FD6946888007200199E1
:1010D00009B2421A00207A49012A20DB049202AAAE
:1010E00030CA00260F000498C00707D532003B0025
:1010F0002000290000F0AAFD04000D000498401013
:1011000004903000390032003B0000F09FFD0600E3
:101110000F0004980028E6D102A830C029E054420C
:101120000026684F19E000BFFF070000FFFF0F8097
:101130000000E03FFE030000E00707D504A803C855
:1011400032003B0000F082FD06000F00641004A88E
:1011500003C804AA0CCA00F079FD04AA03C2002C3B
:10116000EAD102A803C832003B0000F031FE02AA17
:1011700003C20098662803D1019800B20A3000E04B
:1011800006201199096B08180490142801DB13201C
:10119000049030206946087606A8441C049801286B
:1011A0003BDB02A803C800F0DBFB06000834042583
:1011B00030000A2100F0F3FC0F0030000A2100F09B
:1011C000EEFC06003037601E077030000A2100F088
:1011D000E6FC0F0030000A2100F0E1FC0600A41E2E
:1011E000303727706D1EE3D1083404980838049016
:1011F0000128D3DB02A803C800F0B2FB00F0D2FB49
:1012000002000B0002A803C800F039FC00222E4B9C
:1012100000F01CFD02AA03C2C3E706A8401C201A66
:1012200006A94A1C6B4605E0401E019909B2491EF9
:101230009980521C11783029F6D00099662903D183
:10124000019909B2491C04E0652901D1012100E09E
:101250000021119B1B6B5C1824B2A04200DA040031
:1012600024B221001DD4814204DA505C352801DB10
:10127000392000E03020531800E0641E5B1E491E38
:101280001D788542F9D0392802D1505C401C505459
:10129000002906D5521E641C019800B2401C694604
:1012A0008880019800B2009023B212A801781198AA
:1012B00000F00CF813B0F0BD97750000A086010097
:1012C000000024400000F03F84D79741F3B587B079
:1012D00015001C0000F0F7FD0090406A0078694698
:1012E00008710798076B012C01DA0124ADA508A845
:1012F0000178202008430E9E662801D1761C17E055
:10130000672800D09EE00321C9438E4200DA9DE0A9
:10131000BE4200DB9AE0761C07983821405C00074B
:1013200002D4BC4200DA270036B2BF1B00D500272A
:10133000079880690799C9680918009136B2012E8B
:101340002EDA401C3021009A1170012F04DA07991F
:101350003822895C090705D569460979079AD26858
:101360001154401C079988617042874200DA7E421E
:1013700036B2704207994862BF19A74200DA3C00B2
:1013800024B20798C461220029000798C068079B0F
:101390009B69C01800F0B8F9381B07998862E2E031
:1013A000B44220DA22002900009800F0ADF9079934
:1013B00089690919079A9161301B079A5062012FB8
:1013C00004DA07983822805C000709D5684600795E
:1013D000079AD26850540798C069401C0799C861A1
:1013E00007988762BFE032002900009800F08CF96E
:1013F000079880698019A41B012F04DA0799382205
:10140000895C090705D569460979079AD26811549C
:10141000401C0799886124B2A74200DA3C0024B23C
:101420002200A9190798C068079B9B69C01800F0A3
:101430006BF907988069001907998861381B07992B
:10144000486290E0612914D1702015E0BC4205DAB1
:1014500007993822895C090700D427007F1E00D530
:10146000002708A80078672801D1652004E04520FE
:1014700002E0412902D1502008A90870079880692C
:10148000411C079A91612978079AD2681154681C07
:101490000090012F04DA07983821405C000720D51E
:1014A00007988169481C079A90616A461279079BE0
:1014B000DB685A54012F14DB641E24B2A74200DA01
:1014C0003C0024B222000099079BDB68181800F04A
:1014D0001BF907988069001907998861381B0799DB
:1014E00048620798C06807998969411808A8007878
:1014F0000870300003D42B2048708D1C03E02D228F
:101500004A708D1C4642002404AF08E00A2202A85B
:1015100000F0F4FC03983870029E641C7F1C31B20A
:101520000129F3DA022C08DA08A800782021014307
:10153000652902D1302028706D1C002C09D1302083
:1015400028706D1C07E0641E04A8005D3030287010
:101550006D1C012CF7DA0798C06807998969401853
:10156000281A0799C86107983821405C1421014066
:10157000102914D10798406907998969401807997B
:10158000496A40180799C96940180799896A40183B
:101590000799496B884202DA081A0799086209B06C
:1015A000F0BD00003000F1B50E0014000027002B44
:1015B0000FD01D002178B068009A9047B0600028D5
:1015C00006D0F06A401CF062641C6D1E01D0F1E789
:1015D000FF433800F2BDF8B504000F0015001E00EF
:1015E00000F09CFC33002A003900200000F0AAFC27
:1015F000F2BDC9B200E0401C02788A4202D0002A43
:10160000F9D100207047010000E0491C0A78002A47
:10161000FBD1081A7047C9B201E0401C521E002AD3
:1016200003D003788B42F8D170470020704780B513
:1016300000F074FC012002BD70B505002C000F34D1
:101640000720844300BF00BFA54233D2082C04D238
:10165000082402E0083000F085F8244802681100F0
:101660000CD1011D0A68002A20D01368A34212D2AF
:10167000111DF7E71D68A5420DD2191D0B68002B3F
:10168000F8D11268011D00E0191D0B6893420DD0BE
:101690001D68A542F8D300290CD00D682A681300F4
:1016A000083BA3420AD26A680A600FE000F068FCB7
:1016B0000028CFD100BF00BF002070BD2B190B60E8
:1016C0006E685E60121B0B681A602C600968002946
:1016D00004D04A68002A01D0091D00E00021016001
:1016E00000BF00BF2800083070BD0000181A00209D
:1016F00070B504000D00160000F010FC3200290047
:10170000200000F015FC70BD124207D08B0706D0F8
:101710000B78491C0370401C521EF7D87047830792
:1017200006D00B78491C0370401C521EF9D170473B
:1017300070B4103A03D378C9103A78C0FBD253077B
:1017400001D318C918C001D508C908C0D20704D3ED
:101750000B880380891C801C002A01D50B7803703C
:1017600070BC7047002800D1704738B508380400B5
:101770002068082836D3400734D100BF00BF1A487C
:101780004168002901D08C4203D26160446019E0B5
:1017900019004B68002B01D0A342F9D30B68CD1878
:1017A000AC421DD3A54204D122689A180A600C00ED
:1017B00008E04A68002A03D02368E3189A420FD34E
:1017C00062604C60616800290AD02268A3188B42CD
:1017D00006D1002303600868101820604868606024
:1017E00000BF00BF31BD0000181A0020124224D0F3
:1017F000994228D970B500251B4202D00C00002167
:1018000009E00024012649186441944200D3A41A37
:101810007641F8D33100012601E0764109D2001863
:1018200064416D41A41A9D41F7D2A4185D41B619D7
:10183000F5D3300022002B0070BD1B42D8D108B573
:1018400000F0B4FB08BD01D19042D3D202000B00DE
:1018500000210020704730B4012464054D00EC42A3
:101860000BD85D00EC4208D80C001C436400044314
:10187000144304D2994200D1904230BC7047FCD04E
:101880008B42FAD18242F8E730B4012464054D005E
:10189000EC420BD85D00EC4208D80C001C436400FD
:1018A0000443144304D28B4200D1824230BC7047BF
:1018B000FCD09942FAD19042F8E7000010B402003F
:1018C00050684000400D194B984207D15068000302
:1018D00002D11068002811D0022025E0002823D072
:1018E00001290DDB1B1A99420AD35068002802D542
:1018F00000200F4901E000200E4903C2012013E03F
:1019000043428B4209DA53680B4C1C40081800050F
:10191000204350600020C04306E050688021090643
:10192000084050600020106010BC7047FF070000A6
:101930000000F0FF0000F07FFFFF0F80F4464A1820
:1019400005D200F00FF801D580174008604700F07D
:1019500009F80121C907884200D9080040426047C0
:101960004A1812D2400DC90208430121C907084391
:10197000520D40210901521A521C06D452421F3204
:1019800001D4D0407047C017704700207047000056
:10199000010009D5F446404200F006F80122D207C2
:1019A00011436047010000BF42221201D21E0042D3
:1019B00007D002D4521E0018FCD5C10A40051205FA
:1019C000891870478B4200D1824205D984461000A5
:1019D00062468C4619006346DF184C18640D7F0D73
:1019E0003AD0661C760537D0E61B352E34DCDB0298
:1019F0002B43DB0A0C0DC9022943C912202E0DDB33
:101A00001700203E06D01F00F741F3405F4000263C
:101A1000012A7741C01871410DD217E01700F74134
:101A2000F2405740F3415A40B340F3405A40002639
:101A3000801859410AD3A21C52050FD0C207012FAA
:101A4000724117004008CB0718434908641C24055D
:101A50004208AF4170416141F0BC7047641C2105F0
:101A60000020F9E76B4010E06B40ABE7F742F3D1A1
:101A7000E943F1E72442EFD100200021ECE7F0B484
:101A80000125ED070F005F40EED40C00871A9C4142
:101A900005D2C01BA141D219634169406B40AE0A17
:101AA000DF184C18F442E1D2640D7F0DE2D0E61B42
:101AB000362ED1DCDB022B43DB0AA4460C0DC90217
:101AC0002943C90A012E28DC04D1D6075208DF07B2
:101AD0003A435B08EF0A76429041994114D039426B
:101AE0003BD1B61940414941761C394204D1761C9C
:101AF000001849413942FAD0B9436746B74208D97C
:101B0000A41B24052143A7E70042EAD13642E8D1CD
:101B1000A2E7E40AE10700209EE7202E0BDD203E2D
:101B20001F00F340F7415F40012A002257417E42E7
:101B3000984191410BE01700F741F2405740F341C3
:101B40005A40B340F3405A407E42904199410A03C3
:101B500003D2641EB619404149410027641E240582
:101B60004208AE4178416141F0BC7047F44600281C
:101B700004D4494200F013F8404260474042002933
:101B800005D45FD000F00BF840424942604749421B
:101B900000F005F84942604703460B43E6D40022B3
:101BA000030A8B420BD203098B4219D243088B42A2
:101BB0002ED2411A00D20146524110467047FF22F0
:101BC00009023FD012068B4205D3121209028B4242
:101BD00001D31212090203098B4219D300E0090A4A
:101BE000C3098B4201D3CB01C01A524183098B42F6
:101BF00001D38B01C01A524143098B4201D34B01DF
:101C0000C01A524103098B4201D30B01C01A524141
:101C1000C3088B4201D3CB00C01A524183088B42C8
:101C200001D38B00C01A524143088B4201D34B00B1
:101C3000C01A5241884200D3401A5241CFD20146C5
:101C40001046704708B500F0B3F908BDF0B50E00B6
:101C50005E400125ED072E40B446AE0ADF184C1851
:101C6000F44208D2F7420ED2640D01D07F0D12D19A
:101C700000206146F0BD05D1F74201D87F0D05D1A6
:101C80000020C143F0BDFBD1640DF9D00020C14359
:101C9000490549088FE0E419C902DB0229432B43B7
:101CA000DB0A460DC00231438E4630B487B295B28E
:101CB0007D432E0CADB2140C7C43A419260C2404D5
:101CC00025439CB27C43A419190C7943270CC919EC
:101CD000A4B20F043C43090C000C97B247432E0CEE
:101CE000BE193543ADB2170C4743360CBF19A6B227
:101CF000BF193E043543240C3E0C36199FB24743AE
:101D0000BF19BCB23E0C89191F0C47437F183E0413
:101D10003443390C704680B297B247432E0CBE193B
:101D20003543ADB2170C4743360CBF19A6B2BF19E5
:101D30003E043543240C3E0C36199FB24743BF196D
:101D4000BCB23E0C89191F0C47437F183E04344334
:101D5000390C77463F0C90B278432E0C801906045C
:101D6000ADB22E43050CA0B22D18120C7A435019B7
:101D7000020C80B2240CA4189AB27A4312191404EB
:101D80002043120C89181B0C7B43C91830BCEF0A86
:101D9000394203D1B61940414941641E6F12BF0D4B
:101DA000E41B0BDBFF19BC4211DA240500274208B3
:101DB000AE417841614166463143F0BD641C05D1B6
:101DC000401C6141CF0201D34908F4E750E75DE7C9
:101DD000F0B40E005E400125ED072E40B446AE0A79
:101DE000DF184C18F4423BD2F74241D2640D43D085
:101DF0007F0D38D0E41BC902DB0229432B43CF0AF5
:101E0000DB0A0600B61A9F4104D2641EB6197F4150
:101E1000B6185F416812800D24180018844222DA37
:101E2000E80C0021B6197F41B61A9F4102D2B618BC
:101E30005F413F1C40414941F4D3241C21DD24056E
:101E4000B6197F41B61A9F4105D33743C6073743BA
:101E50000026012F7041614166463143F0BC704756
:101E6000FCD1F74205D20020C14349054908F3E7F8
:101E700004D00020C143F1E77F0DFAD00020614675
:101E8000ECE72442FAD1401C61410F03F6D3002055
:101E9000E2E7000080B5124800F08BF811A1016064
:101EA00041608160C1600161416181610EA2426255
:101EB0008162C162016341630CA282630DA2C263AD
:101EC0000164416401BD10B5054800F072F80400DA
:101ED0002068002801D1FFF7DDFF200010BD0000C1
:101EE000CC000020000000002E00000066616C7332
:101EF0006500000074727565000000007CB5040088
:101F00000E00150030002900FFF746FE0090454303
:101F1000701B0190684603C803C473BD80B50348B5
:101F200000F047F8806902BD000000005C0100205D
:101F3000002804D10EA003C803C20020704701701E
:101F400001207047002904D10BA003C803C300205F
:101F50007047002A02D10120C0437047002801D0F9
:101F60000A7802800978481E8041C043C00F70473C
:101F70000000000000000000000000000000000061
:101F800007490868002801D000207047054807224B
:101F90009043086004499143091A0160704700BFEB
:101FA000201A0020CF110020C81500207047000023
:101FB0007047704770B5040000F005FD2100C9B2FC
:101FC000884208D0E4B2260200F0FDFC064335004A
:101FD000280080B200E0002070BD80B5012000F034
:101FE000BDFC00F061F90028FBD0002000F0B6FC39
:101FF00001BD80B5012000F0B1FC00F05EF900F0F9
:1020000053F90028FBD0002000F0A8FC01BD80B5EA
:10201000012000F0BDFC00F050F9002000F0B8FCF9
:1020200001BD10B504002000C0B200F093FC00F028
:1020300044F900F039F90028FBD010BD80B500F05C
:102040003CF900F031F90028FBD000F07FFC02BD24
:1020500010B50400FFF7CDFF2000C0B2FFF7E1FF8D
:1020600000F0B1FC1828F5D1FFF7D1FF10BD80B505
:10207000002859D09549096810229143934A11606C
:102080009349096810220A4391490A6091490968F5
:10209000102291438F4A116000216A4651706946AF
:1020A000497809292DDA8949096810220A438749A4
:1020B0000A6000216A46117069460978642906DAC7
:1020C00000BF69460978491C6A461170F4E77F49E8
:1020D0000968102291437D4A116000216A461170FF
:1020E00069460978642906DA00BF69460978491CFF
:1020F0006A461170F4E769464978491C6A4651708E
:10210000CDE77249096810220A4370490A60714993
:10211000096810220A436F490A606F490968102252
:1021200091436D4A11605CE06C4909686C4A0A4051
:102130006A490A606B490968802292010A43694929
:102140000A6069490968664A0A4067490A600021CD
:102150006A4651706946497809292EDA5F4909684B
:10216000802292010A435D490A6000216A4611708B
:1021700069460978642906DA00BF69460978491C6E
:102180006A461170F4E755490968554A0A405349AF
:102190000A6000216A46117069460978642906DAE6
:1021A00000BF69460978491C6A461170F4E7694620
:1021B0004978491C6A465170CCE748490968802231
:1021C00092010A4345490A60474909688022920101
:1021D0000A4345490A6045490968414A0A4043495A
:1021E0000A6001BD10B504004148006840218843E1
:1021F0003F49086000203F49086000203C490860D2
:1022000000203D4908602000FFF731FF10BD00218C
:1022100081600021C16000214160002101607047A0
:1022200038B504006068012806D06068002803D033
:10223000EC21324800F096FCA068042806D0A06883
:10224000002803D0ED212D4800F08CFCE068002828
:1022500018D0E068012815D0E068022812D0E068A4
:1022600003280FD0E06880280CD0E068812809D0CE
:10227000E068822806D0E068832803D0EE211F485A
:1022800000F070FC2068616801431A48016018483A
:1022900000680500872085432900E068A56805439C
:1022A0000D431348056031BD00B5114800680007B3
:1022B00001D5012000E0002000BD0D480068082184
:1022C00088430B4908607047000000004800004048
:1022D0004C00004040000040440000402800004006
:1022E000FFDFFFFF2C0000402000004024000040E2
:1022F0000808014004080140180801407836000031
:1023000070B50400A07801280AD0A078022807D070
:10231000A078032804D09D2149008F4800F022FCBA
:10232000012000F0F8FAFFF758FE0820FFF742FE00
:102330000500ADB2002D02D0280080B20AE1A078DD
:1023400001281BD12088C0B2FFF76BFE1820FFF7D1
:1023500031FE0500ADB2002D02D0280080B2F9E0B8
:10236000A068C0B2FFF75DFE2820FFF723FE05003E
:10237000ADB2002D02D0280080B2EBE0A078022898
:102380002AD12088C0B2FFF74CFE1820FFF712FEBA
:102390000500ADB2002D02D0280080B2DAE0A068BE
:1023A000000AC0B2FFF73DFE2820FFF703FE05003C
:1023B000ADB2002D02D0280080B2CBE0A068C0B240
:1023C000FFF72FFE2820FFF7F5FD0500ADB2002D29
:1023D00002D0280080B2BDE0A078032853D1606805
:1023E000FF2820D82188A068C2090E201040084389
:1023F000C0B2FFF716FE1820FFF7DCFD0500ADB2F6
:10240000002D02D0280080B2A4E0A068C0B2FFF77F
:1024100008FE2820FFF7CEFD0500ADB2002D32D01A
:10242000280080B296E02188A068C20B0E201040E0
:102430000843C0B2FFF7F5FD1820FFF7BBFD05000C
:10244000ADB2002D02D0280080B283E0A068000A5F
:10245000C0B2FFF7E6FD2820FFF7ACFD0500ADB2E6
:10246000002D02D0280080B274E0A068C0B2FFF74F
:10247000D8FD2820FFF79EFD0500ADB2002D02D04B
:10248000280080B266E0FFF7B4FD1020FFF792FD50
:102490000500ADB2002D02D0280080B25AE0A0782D
:1024A00003281AD16068FF280BD820880121014336
:1024B000A068C2090E2010400843C0B2FFF7B1FD6A
:1024C00011E0208801210143A068C20B0E201040BA
:1024D0000843C0B2FFF7A5FD05E0218801200843AD
:1024E000C0B2FFF79EFD4020FFF764FD0500ADB2CE
:1024F000002D02D0280080B22CE0002006002069C8
:10250000401E864212D2FFF799FDE1680870E0682C
:10251000401CE0605020FFF74DFD0500ADB2002DDE
:1025200002D0280080B215E0761CE8E7002000F019
:10253000F2F9FFF783FDE16808705820FFF73AFDD4
:102540000500ADB2002D02D0280080B202E0FFF7F6
:102550005EFD002070BD00007836000070B50500FB
:10256000A87801280AD0A878022807D0A8780328DC
:1025700004D0FF21B831094800F0F4FA012000F03E
:10258000CAF9FFF72AFD0820FFF714FD0400A4B2E2
:10259000002C05D0200080B2A2E100BF78360000F8
:1025A000A87801281CD12888C0B2FFF73AFD18206E
:1025B000FFF700FD0400A4B2002C02D0200080B27E
:1025C0008EE1A868C0B2FFF72CFD2820FFF7F2FCCF
:1025D0000400A4B2002C00D184E0200080B27FE18E
:1025E000A87802282AD12888C0B2FFF71AFD18203F
:1025F000FFF7E0FC0400A4B2002C02D0200080B25F
:102600006EE1A868000AC0B2FFF70BFD2820FFF7B3
:10261000D1FC0400A4B2002C02D0200080B25FE103
:10262000A868C0B2FFF7FDFC2820FFF7C3FC040038
:10263000A4B2002C56D0200080B251E16868FF2877
:1026400020D82988A868C2090E2010400843C0B2CB
:10265000FFF7E7FC1820FFF7ADFC0400A4B2002C44
:1026600002D0200080B23BE1A868C0B2FFF7D9FCDD
:102670002820FFF79FFC0400A4B2002C32D02000D9
:1026800080B22DE12988A868C20B0E2010400843B3
:10269000C0B2FFF7C6FC1820FFF78CFC0400A4B200
:1026A000002C02D0200080B21AE1A868000AC0B253
:1026B000FFF7B7FC2820FFF77DFC0400A4B2002C34
:1026C00002D0200080B20BE1A868C0B2FFF7A9FCDD
:1026D0002820FFF76FFC0400A4B2002C02D02000D9
:1026E00080B2FDE0002006002869864200D3F0E0B9
:1026F000002E00D1DAE0A86880196968FFF74FFA68
:10270000002900D0D2E0FFF782FC2888C0B2FFF792
:102710009FFCFFF762FC0820FFF74CFC0400A4B20A
:10272000002C02D0200080B2DAE0A87801281DD168
:102730002888C0B2FFF775FC1820FFF73BFC0400A7
:10274000A4B2002C02D0200080B2C9E0A8683100F9
:102750004018C0B2FFF765FC2820FFF72BFC0400EF
:10276000A4B2002C02D0200080B2B9E0A8780228E0
:102770002DD12888C0B2FFF754FC1820FFF71AFCAF
:102780000400A4B2002C02D0200080B2A8E0A86807
:102790008019000AC0B2FFF744FC2820FFF70AFCAA
:1027A0000400A4B2002C02D0200080B298E0A868F7
:1027B00031004018C0B2FFF734FC2820FFF7FAFBC5
:1027C0000400A4B2002C02D0200080B288E0A878D7
:1027D00003285AD16868FF2823D82988A868801957
:1027E000C2090E2010400843C0B2FFF71AFC18209F
:1027F000FFF7E0FB0400A4B2002C02D0200080B25E
:102800006EE0A86831004018C0B2FFF70AFC28202B
:10281000FFF7D0FB0400A4B2002C36D0200080B219
:102820005EE02988A8688019C20B0E20104008437A
:10283000C0B2FFF7F6FB1820FFF7BCFB0400A4B200
:10284000002C02D0200080B24AE0A8688019000A5B
:10285000C0B2FFF7E6FB2820FFF7ACFB0400A4B2F0
:10286000002C02D0200080B23AE0A8683100401865
:10287000C0B2FFF7D6FB2820FFF79CFB0400A4B2F0
:10288000002C02D0200080B22AE0E8680078FFF730
:10289000C8FBE868401CE8602820FFF78BFB0400B9
:1028A000A4B2002C13D0200080B219E0E8680078B0
:1028B000FFF7B7FBE868401CE8602820FFF77AFBC9
:1028C0000400A4B2002C02D0200080B208E0761CE4
:1028D0000AE7FFF79CFB2888C0B2FFF7B9FB00208E
:1028E00070BD10B50400002C05D0012C03D0384970
:1028F000384800F037F9012C06D1374800684021EC
:1029000001433548016005E03348006840218843B1
:102910003149086010BD10B50400002C06D0012C10
:1029200004D09B2189002B4800F01CF9012C06D112
:1029300029480068042101432748016005E0264832
:102940000068042188432449086010BD23480068BA
:10295000C0B27047C0B221490860704710B504008A
:10296000002C05D0012C03D01D491A4800F0FAF8BC
:10297000012C06D118480068202101431648016047
:1029800005E015480068202188431349086010BD00
:1029900010B50400002C06D0012C04D0A921890018
:1029A0000C4800F0DFF8012C06D10B48006810211C
:1029B00001430948016005E0074800681021884389
:1029C0000549086010BD07480168F82008407047B5
:1029D0005702000078360000080801400008014056
:1029E000920200000C08014000B58DB0C320009099
:1029F00004200190002004900020029020200390E9
:102A000001200B9001200C90684600F0ADF80DB04D
:102A100000BD00B583B0802000010090022001902D
:102A20006946474800F072FB01220B21454800F03F
:102A3000D7FB07BD00B583B08020000100900420C3
:102A4000019069463E4800F061FB07BD70B58AB051
:102A5000012500203C490870FFF7C6FF00F002FC8A
:102A6000002004008020800084420CDA00F01AFC70
:102A700080214900FFF790F834480155002034497F
:102A80000855641CEEE7FFF7C4FF0020FFF7AAFB20
:102A900005A8FFF7BCFB05A8FFF7C2FB0120FFF765
:102AA00020FF012028490870022069468870A02074
:102AB00069460880402001908020800004902348CF
:102AC0000390002002906846FFF748FD0600B6B26A
:102AD000002E04D01F4800F04BFC002005001C48CD
:102AE00003906846FFF70CFC0600B6B2002E04D037
:102AF000194800F03DFC00200500FFF79BFF002077
:102B0000FFF770FB002004008020800084420ADA76
:102B10000F48005D0D49095D884202D00020050084
:102B200001E0641CF0E7EDB2002D03D00B4800F08B
:102B30001FFC02E00A4800F01BFC00F02BFCFCE745
:102B40008000004000110042241A0020C815002017
:102B5000C817002040390000543900000039000037
:102B6000A438000000B5FEE738B504002078C0B2F4
:102B7000002804D02068FF218843002803D06C215E
:102B8000B248FFF7EFFF2078C0070ED5B0480068C5
:102B900008218843AE490860AD4800681021884389
:102BA000AB4908600020AB4908602078000715D5C4
:102BB000206A802806D0206A002803D07C21A34800
:102BC000FFF7D0FFA248006880218843A049086031
:102BD0009F480068216A01439D4801602078800772
:102BE00053D5A068202806D0A068002803D08721EC
:102BF0009648FFF7B7FFE068202806D0E068002875
:102C000003D088219148FFF7ADFF2069002818D034
:102C10002069012815D02069022812D020690328D4
:102C20000FD0206904280CD02069052809D020691C
:102C3000062806D02069072803D089218348FFF79A
:102C400091FFE06820281AD18148006820210143C3
:102C50007F480160964800680500072085432800EA
:102C600025690543924805609248006805002020C8
:102C700085432800A56805438E48056005E0744833
:102C8000006820218843724908602078400768D591
:102C90006069002806D06069102803D0A7216B481E
:102CA000FFF760FFA069402806D0A069002803D084
:102CB000A8216648FFF756FFE069602824D0E06944
:102CC000682821D0E06970281ED0E06978281BD0E0
:102CD000E069002818D0E069082815D0E0691028BC
:102CE00012D0E06918280FD0E06920280CD0E069E4
:102CF000282809D0E069302806D0E069382803D0B8
:102D0000A9215248FFF72EFFA069402823D150483F
:102D10000068402101434E48016065480068050095
:102D2000782085432800E5690543614805606069AE
:102D3000102805D1464800688021014344480160BD
:102D40005C4800680500102085432800656905433C
:102D50005848056005E03E480068402188433C49EA
:102D600008602078800620D5606A002806D0606A56
:102D7000022803D0CD213548FFF7F4FEA06A0028D1
:102D800006D0A06A012803D0CE213048FFF7EAFE22
:102D9000484800680500022085432800656A05430D
:102DA00044480560A06A00F04FFB2078C00756D564
:102DB000606800280FD0606801280CD06068022885
:102DC00009D06068032806D06068042803D0DD219C
:102DD0001E48FFF7C7FE6068002803D160681D49E0
:102DE00008603CE0606801280DD119480068802126
:102DF000014317480160304800680007FBD5606850
:102E0000144908602BE0606802280DD11048006862
:102E1000402101430E48016028480068C007FBD5E7
:102E200060680C4908601AE06068042814D10848FA
:102E3000006820210143064801602048006880079F
:102E4000FBD560680349086009E000BF78350000E1
:102E50000C420140043E0140606819490860207836
:102E6000400610D5E06A002804D0E06AFF21891CE2
:102E7000884204D3FF2118311248FFF773FEE06A3D
:102E8000401E114908602078000610D5206B0028EC
:102E900004D0206BFF21891C884204D3FF212031FC
:102EA0000848FFF75FFE206B401E8A49086031BD6D
:102EB00024420140084001400C400140544201407E
:102EC000043E014078350000083E0140FCB58748CB
:102ED00000684007400F019085480068C0B2401C60
:102EE00004000198002808D0022814D00CD304282C
:102EF00000D19DE000D281E0E8E0C820C0032100BD
:102F0000FEF74DFE0700E3E0C820C0032100FEF7F6
:102F100046FE0700DCE07748006878210140009118
:102F20000098002832D0082837D010283CD0182824
:102F300041D0202845D028284AD030284ED03828E3
:102F400053D0602806D068280BD0702810D078287D
:102F500015D050E0C82000042100FEF720FE070035
:102F60004BE0FA2000042100FEF719FE070044E0C0
:102F7000962040042100FEF712FE07003DE0AF203E
:102F800040042100FEF70BFE070036E0C820400495
:102F90002100FEF704FE07002FE0E120400421009D
:102FA000FEF7FDFD070028E0FA2040042100FEF7AF
:102FB000F6FD070021E050482100FEF7F0FD070074
:102FC0001BE0962080042100FEF7E9FD070014E0D5
:102FD0004A482100FEF7E3FD07000EE0AF20800421
:102FE0002100FEF7DCFD070007E045482100FEF761
:102FF000D6FD070001E00020070069E041480068B5
:103000008007800F0600002E06D1802000022100DC
:10301000FEF7C5FD07000AE0012E06D180208001E1
:103020002100FEF7BCFD070001E0002007004FE093
:10303000304800684007400F0500002D0BD0022DDE
:1030400017D00FD3042D22D01AD3062D2DD025D37F
:10305000072D31D037E0C82040042100FEF79FFD46
:10306000070032E0C82000042100FEF798FD0700A9
:103070002BE0C820C0032100FEF791FD070024E0EB
:10308000C82080032100FEF78AFD07001DE0C8204C
:1030900040032100FEF783FD070016E0C82000036F
:1030A0002100FEF77CFD07000FE0C820C0022100D0
:1030B000FEF775FD070008E0C82080022100FEF73A
:1030C0006EFD070001E00020070001E0002007007E
:1030D0003800F6BD0C3E014080B5FFF7F7FE0A4907
:1030E0000968C9B2491CFEF75AFD02BD043E014001
:1030F000083E0140244201400000260200008A02EE
:103100000000EE02584801400C3E0140F8B50600B0
:103110000C002D4886420FD02C4886420CD02C48FB
:10312000864209D02B48864206D02B48864203D0DF
:1031300024212A48FFF716FD206880B2002804D019
:103140002068000C0004002803D025212348FFF745
:1031500009FD60680C2812D0606802280FD06068F2
:1031600003280CD060680B2809D060680A2806D0B4
:103170006068042803D026211848FFF7F3FC207963
:1031800080070AD5F0680500206885432079C007CC
:1031900002D5280025680543F560306805002068E1
:1031A000854370680700206887432079000702D5AF
:1031B0003800276807432079400702D52800256892
:1031C000054335607760F1BD2000004040000040BD
:1031D0006000004080000040A0000040F835000082
:1031E00070B504000D0016001748844213D017482C
:1031F000844210D0164884420DD0164884420AD02A
:103200001548844207D01648844204D080214900E2
:103210001248FFF7A7FCEDB2102D04D3FF21891C43
:103220000E48FFF79FFCF6B2012E07D0F6B2002E33
:1032300004D0812149000948FFF794FCF6B2EDB2B1
:1032400004206843265070BD000328420005004258
:1032500000090042000D004200110042F835000054
:103260000015004280B5FFF737FFE1214902FEF764
:1032700096FC0849086001200749086001BD00B5B7
:10328000064A1060064A12689206FBD52022044BBB
:103290001A6000BDB0180140A8180140A0180140F4
:1032A000A4180140F8B52F4E3000FEF782FE0090C2
:1032B000301DFEF77EFE040030000830FEF779FE78
:1032C000050030000C30FEF774FE2749274A009BAA
:1032D0001B78002B36D1236853435B18236053437C
:1032E0005B18236053435B18236053435B182360D0
:1032F00053435B18236053435B18236053435B18AD
:10330000236053435B182360030008262768574354
:103310007F1827601F60276857437F1827605F600A
:10332000276857437F1827609F60276857437F1897
:103330002760DF601033761EE8D1C36F2B60012356
:10334000009E337023685343591821602978C906B9
:10335000490E4018016829602168016028688000D2
:103360008008F2BD400000205FF36E3C0D6619003E
:103370000EB400B582B003A900916B460200012192
:10338000034878440A30FCF7C1FF029906B00847A9
:1033900089050000014802490860704755AAAA55EE
:1033A0004840014010B50400002C05D0012C03D08A
:1033B0001D211F48FFF7D6FB002C06D01D481E49D3
:1033C00008601E481F49086005E01A481A4908604D
:1033D0001B481C49086010BD00B51A4800688007EA
:1033E000FBD400BDF8B505000C001700A807800F3E
:1033F000002803D04E210E48FFF7B4FBFFF7ECFF87
:103400000020FFF7CFFF0020060030003900C0B2D7
:10341000C9B2884205D220682860241D2D1D761C63
:10342000F3E70120FFF7BEFFFFF7D6FFF1BD000075
:10343000F8360000A55AA55A444801405AA55AA595
:103440005BA55AA54848014038B50400002C06D0B9
:10345000012C04D0A92189000B48FFF783FB0B48FE
:1034600000680500032085432543FFF7B5FF0020D2
:10347000FFF798FF054805600120FFF793FFFFF76E
:10348000ABFF31BD00000000F83600005848014095
:10349000F8B52D48006807003C00E04304002B48C5
:1034A000006884420AD02A48006807003C00E043D4
:1034B000040028480068844200D0FEE70020050090
:1034C000BD4240D20C2068432349401800680600E2
:1034D0000C2068432149401800680090009830187B
:1034E0000400E04304000C2068431D4940180068B4
:1034F000844218D00C2068431A494018006806001E
:103500000C20684318494018006800900098301853
:103510000400E04304000C2068431449401800688C
:10352000844200D0FEE71248864208D31148864202
:1035300005D2012269463000FFF754FF01E00098F0
:1035400030606D1CBCE7F1BD0004080004040800F5
:103550000005080004050800080408000C04080021
:1035600010040800080508000C05080010050800F4
:103570000048014001500140463A5C3036707562A7
:103580006C69632072656C656173655CD6F7BFD842
:10359000D0BEC6AC5C5638353030505CBFAAB7A23E
:1035A000B9A4BEDF5C44726976654C69627261726F
:1035B000795C5638355858505F4C69625F56322EE8
:1035C000355C5638355858505F4C69625F56322E1C
:1035D000355C4C69627261726965735C4C69625FEB
:1035E0004472697665725C7372635C6C69625F6376
:1035F0006C6B2E6300000000463A5C3036707562DA
:103600006C69632072656C656173655CD6F7BFD8C1
:10361000D0BEC6AC5C5638353030505CBFAAB7A2BD
:10362000B9A4BEDF5C44726976654C6962726172EE
:10363000795C5638355858505F4C69625F56322E67
:10364000355C5638355858505F4C69625F56322E9B
:10365000355C4C69627261726965735C4C69625F6A
:103660004472697665725C7372635C6C69625F67F1
:1036700070696F2E63000000463A5C3036707562E8
:103680006C69632072656C656173655CD6F7BFD841
:10369000D0BEC6AC5C5638353030505CBFAAB7A23D
:1036A000B9A4BEDF5C44726976654C69627261726E
:1036B000795C5638355858505F4C69625F56322EE7
:1036C000355C5638355858505F4C69625F56322E1B
:1036D000355C4C69627261726965735C4C69625FEA
:1036E0004472697665725C7372635C6C69625F696F
:1036F00032632E6300000000463A5C30367075621B
:103700006C69632072656C656173655CD6F7BFD8C0
:10371000D0BEC6AC5C5638353030505CBFAAB7A2BC
:10372000B9A4BEDF5C44726976654C6962726172ED
:10373000795C5638355858505F4C69625F56322E66
:10374000355C5638355858505F4C69625F56322E9A
:10375000355C4C69627261726965735C4C69625F69
:103760004472697665725C7372635C6C69625F72E5
:1037700074632E630000000000B5FEE700B5FEE7AD
:103780007047704770477047704770477047704781
:103790007047704770477047704770477047704771
:1037A0007047704770477047704770477047704761
:1037B00070477047704770477047704770B4012179
:1037C000002213E00468001D0C4202D04D466D1E1D
:1037D00064192260241D1B1F042BFAD225009E07AA
:1037E00001D52280AD1C0B4000D02A700368001D5B
:1037F000002BE7D170BC704730B5016841184468B0
:1038000062088A188368E40701D54C461B19914267
:1038100001D10C3030BD0C7864B2491C0D78491CC4
:103820001D705B1C002C02D5641CF9D1EFE7641EEF
:10383000F4D5ECE70000000000000000686A6C743A
:103840007A4C000000000000000000006E616E0075
:103850004E414E00696E6600494E460010B507495C
:1038600079441831064C7C44163404E0081D0A687B
:10387000891888470100A142F8D110BD0800000056
:103880002400000039FFFFFF60040000C81500207D
:103890000000000065FFFFFFDC0000006600000084
:1038A0000000002057726974652F726561642045BD
:1038B0004550524F4D206572726F72210D0A000003
:1038C00000F00BF8002801D0FFF7C8FF002000BF70
:1038D00000BFFFF7BBF800F002F80120704780B589
:1038E00000F002F801BD00000746384600F002F87B
:1038F000FBE700002021090326311820ABBEF9E7C1
:1039000057726974652F7265616420454550524F46
:103910004D204F4B210D0A0038B505000C0020004A
:1039200000F006F8A04200D00025280032BD0000BB
:1039300080B50249FFF7A3FC02BD00BF00000020D4
:10394000493243207772697465206572726F722103
:103950000D0A00004932432072656164206572726D
:103960006F72210D0A00000000BF00BF00BF00BF42
:10397000FFF7A6FF1F02040101C8190020181A0052
:1039800020C8190020C8190020C81900203D0000D7
:103990002024000020DC0000018100DC00F8FFDCB6
:0739A00000FAFF8100D100D5
:040000050000396955
:00000001FF
