:1000000030110020C1000000312800003528000018
:1000100000000000000000000000000000000000E0
:10002000000000000000000000000000392800006F
:1000300000000000000000003B2800003D280000F8
:100040003F28000041280000432800004528000008
:1000500047280000492800004B280000C128000064
:10006000C3280000C5280000C7280000C9280000D8
:10007000CB280000CD280000CF280000D1280000A8
:10008000D3280000D5280000D7280000D928000078
:10009000DB280000DD280000DF280000E128000048
:1000A000E32800000000000000000000E528000038
:1000B000E728000000000000000000000000000031
:1000C000024880470248804702480047D9000000A4
:1000D00051270000E92C0000664867490160674825
:1000E0002021674A674B0024FF27056814601D60C4
:1000F0001E683D403E40B54204D104340430A14264
:100100000DD0F2E7056814601D601E683D403E405A
:10011000B542FED104340430A14200D0E5E73021DD
:10012000594F056814601D601E683D403E40B54251
:10013000E8D104340430A1420DD0F2E70568146020
:100140001D601E683D403E40B542FED1043404307F
:10015000A14200D0E5E74748002101604B4C4C4DDF
:100160004C4E4D4F4D4800684D49096842184D4B63
:10017000D218D2434C4B1B68934200D00FE0FF21B2
:100180000140216049490140090A2960484901406C
:10019000090C316047490140090E39601DE04648AD
:1001A00000684649096842183E4BD218D243444B76
:1001B0001B68934200D00FE0FF21014021603B49C2
:1001C0000140090A29603A490140090C3160394966
:1001D0000140090E396000E0FEE73A4F3A480068F6
:1001E0003A490968C943814200D003E0FF21014038
:1001F00039601AE03648006836490968C9438142C7
:1002000000D003E0FF21014039600EE0FEE73248F4
:100210000168022211409142F9D007E02E4801689E
:10022000022211409142F9D022E0F0E72B482C49FC
:10023000016029482B4901602B48002101602B48AF
:10024000002101602A482B4901602B4800210160F0
:100250002A48002101602A48002101602948002124
:1002600001601E481E4901601B4827490160D5E70F
:1002700070470000E0FF0F0055AAAA55000E0800C5
:10028000E8FF0F00F0FF0F00FF81FF812C420140CB
:10029000304201403442014038420140C00D080064
:1002A000C40D0800FFFFFFFFCC0D080000FF000099
:1002B0000000FF00000000FFD00D0800D40D080072
:1002C000DC0D080040420140E00D0800E40D08008C
:1002D000E80D0800EC0D0800484801404448014082
:1002E000A55AA55A5BA55AA5584801408C4801401B
:1002F0008848014000006400204801402448014033
:10030000284801402C4801405AA55AA50100202048
:1003100008437047FDB5B4B03C9802AA00230024FE
:1003200018C2069104A93B2288540F9317A8401CB9
:1003300031900BE02300359A04A9349800F0DCFFDB
:10034000002800D538E135980019359035980078A7
:1003500025280ED1002009900A900B900C900D904A
:100360000E90002102240420169008201490359D40
:100370000FE002AA0021C943359801F00DF80400EE
:1003800001D10F981AE1D5D50124DCE7080001213D
:1003900001436D1C28782028F8D023280BD02B2867
:1003A00004D02D2804D0302808D00AE02143F0E7FB
:1003B00008001699ECE708000821E9E70800102179
:1003C000E6E72A280FD1369802681068121D369B7E
:1003D0001A601190002804D5424211920800169923
:1003E00001436D1C12E000201190984A09E0119B16
:1003F000934205DA9E00F3185B001818303811900C
:100400006D1C28780300303B0A2BF0D328782E2867
:1004100003D00020C043109027E06D1C28782A28C4
:1004200008D1369800680268001D369B186010924B
:100430006D1C1AE02D2802D12D226D1C00E0002237
:1004400000201090814B0BE0002A08D1109E9E42A4
:1004500005DAB700BE1976003018303810906D1CE0
:1004600028780600303E0A2EEED304A801872E78A5
:10047000310056487844FF30553000F09FFF002887
:1004800001D06D1C00E0002604A83A214654405CCF
:10049000682804D1287868280BD1622005E06C28F0
:1004A00007D128786C2804D1712004A93A228854F5
:1004B0006D1C22A80890287869460870681C359041
:1004C000684602781000253834D01C3800D157E136
:1004D000001F022800D853E10E3831D0401F01D14F
:1004E00000F09BFC093800D14AE1801E01D100F0E8
:1004F0002FFD401E01D100F0DEFC401E022800D876
:100500003EE1001F01D100F0D6FC401F00D18FE07A
:10051000401E01D100F081FC401E76D0C01E27D0C5
:10052000801E01D100F079FCC01E01D100F075FCE5
:1005300000F02DFD01200990252022A9087033E04C
:100540006C2004A93A228854369800680268001D7D
:1005500036990860002A51D104A83B21405C00284C
:1005600049D00024E44338487844FF30233817E06A
:1005700004A83A21405C6C28E6D0369800680468EC
:10058000001D369908600794002C21D104A83B2156
:10059000405C002814D00024E4432D487844B03057
:1005A00000F016FF201A07D122AA04A9349800F0FF
:1005B000FFFC002800D4C9E60020C04337B0F0BDDE
:1005C000244878448E300790EEE700BF1C230000DB
:1005D000109D002D03D5200000F01EFF09E02A0029
:1005E0000021200000F020FF002801D0001B00E0C7
:1005F00028000A90D8E7184A7A445C3204A9349853
:1006000000F060FD0028CFD5D6E736980068026874
:10061000001D369908600020C0430021104004AA44
:1006200003C222A80790782104A800F0ABFDBBE725
:1006300004A83B21415C002910D00024E4434E482B
:100640007844FF303530ABE7F8220000CBCCCC0C3F
:10065000D0220000E8220000042300003A21405C80
:1006600062286BD068281CD06A2847D06C2806D036
:10067000712855D0742833D07A2823D06EE036986C
:1006800000680168001D369A1060002906D1002418
:10069000E4433A487844FF301B3881E70F980860FC
:1006A00082E7369800680168001D369A10600029BC
:1006B00005D10024E44331487844C03070E70F98F6
:1006C000088071E7369800680168001D369A10604E
:1006D0000029E3D10024E443284878449E305FE7B2
:1006E000369800680168001D369A10600029D5D13F
:1006F0000024E44321487844823051E7369800686A
:100700000268001D36990860002A05D10024E443E0
:100710001A487844663043E70F98C11703C243E78D
:10072000369800680268001D36990860002AF3D1E7
:100730000024E44311487844423031E73698006899
:100740000168001D369A1060002905D10024E44399
:100750000A487844263023E70F98EFE63698006879
:100760000168001D369A1060002997D10024E443E7
:1007700002487844801D13E7782100008C21000096
:1007800036980068C31D072083433698036003CB67
:10079000369D2B6004AB03C3C80F02D009982D21EE
:1007A0000AE004A8008F204202D009982B2103E020
:1007B000C00705D50998202122AB1954401C099087
:1007C00022A80999401815901598079017AD04A80C
:1007D000C0C868460078202101436846817080784F
:1007E00061280BD01098002801D5062005E005D11E
:1007F00068468078672801D10120109004A803C8BA
:1008000008004B005B150024E443A34212D1090306
:1008100010D003200A90613A1A2A03D21949794468
:10082000623102E0184979445E310322159800F0E4
:1008300021FEB9E6A3420AD1000308D103200A90A1
:10084000613A1A2A19D3114979444031EDE701AAD6
:1008500004A803C800F01BFE04AA03C268468078FF
:1008600061281CD1079830210170811C07916946CD
:10087000097861290ED178210DE0054979441031BC
:10088000D3E700BFDC200000DC200000E0200000F7
:10089000D8200000582141700998801C099004A8B4
:1008A00003C82246530802400B4004D1002A02D15B
:1008B0000024002652E168468078612800D099E043
:1008C0001098002801D5212000E0401C15901598B3
:1008D000401C1690300039000022002300F0ECFD8F
:1008E00004A830C802D28020000645400198001FAD
:1008F000019017A90A7017A8461C1698002832DD27
:10090000169F20002900002280235B0300F0EDFDEC
:1009100029D81C2200F002FE04000D0000F036FE73
:100920001690FF1F002F09DD00F06AFE02000B0089
:100930002000290000F0CBFE04000D00F01D07216F
:10094000169A002A0ADD491E08D4401E13071B0F01
:1009500003701211F5E7401E00220270491EFAD5FD
:10096000C61D002FCDDC17A83199711A17AA551C86
:10097000159A0C00914200DD1400002C33D48C42F7
:1009800005DA411C095D082901DB0F2100E0002187
:10099000220017AB9B1801E0641E5B1E521E1E78DE
:1009A0008E42F9D00F2904D1411C895C491C401C9E
:1009B0008154002A04D517AD641C0198001D0190D4
:1009C000611E10D46A186846007813783033DEB29E
:1009D0003A2E01DBC318C6331370491E521E00297C
:1009E000F3D5694608701098002800D4B5E0601E61
:1009F0001090B2E07F007F0801986649484366493D
:100A000000F0F2FE019007200199401A002805DD50
:100A100002003000390000F047FC0AE042420020AA
:100A20005E4900F041FC02000B003000390000F08C
:100A300035FF6A469278662A02D1019A0A3200E0AE
:100A40000622109B9A18142A00DD142217AB3024BA
:100A50001C705C1C02E032A803C8159A002A3CDD19
:100A600032AB03C3159232A803C800F0A1FD219058
:100A700006460834169D30000A2100F0B8FE0F002B
:100A800030000A2100F0B3FE06003037601E077008
:100A900030000A2100F0ABFE0F0030000A2100F008
:100AA000A6FE0600A41E303727706D1EE3D1083461
:100AB0001598083815900028CDDD219800F090FD9C
:100AC00002000B0032A803C800F001FE0022344BE4
:100AD00000F045FF32AA03C2C5E73198201A17A9D2
:100AE0004D1C04E0401E0199491E01916D1C29789E
:100AF0003029F7D069468978662902D10199491CC5
:100B000006E069468978652901D1012100E00021CC
:100B1000109A5418A04200DA441E002C1DD48442BE
:100B200004DA285D342801DD392100E0302122007B
:100B3000681E831801E0641E5B1E521E1E788E42E2
:100B4000F9D0392902D1A95C491CA954002A04D53D
:100B50000500641C0198401C0190019E1595684693
:100B600000786946487000F021FC406A00786946C8
:100B70000870109D20B2002804DC01240448784449
:100B80000E3015906846807866280BD1761C23E0DD
:100B9000E01D000097750000A08601000000F03FF6
:100BA00084D7974168468078672847D130B20321BF
:100BB000C943884248DBA84246DA761C04A8008F65
:100BC0001499C0B2084203D120B2A84200DC05004B
:100BD00030B22D1A00D500250A990798401837B26F
:100BE000002F00DDB8E0491C0A9130210170002D72
:100BF00005DC04A8008F1499C0B2084206D00A98F8
:100C0000411C0A9169460978079A11547842854235
:100C100000DA6E4236B270420D90AD1920B28542B4
:100C200000DA2C0024B20B942200159907980A9B35
:100C3000C01800F01FFC281B0E90D3E068464078D7
:100C4000612818D170201BE020B2A84206DA04A95E
:100C5000098F149AC9B2114200D105006D1E00D54A
:100C6000002568464078672802D16520694607E07C
:100C70004520694604E068464078412801D150206B
:100C800048700A98411C0A9115990978079A1154DD
:100C90001598411C002D05DC04A8008F149AC0B2E1
:100CA000104219D00A98421C0A926A461278079B91
:100CB0001A54002D10DD641E20B2854200DA2C008B
:100CC00022B207980A9BC01800F0D4FB24B20A98FD
:100CD00000190A90281B0D9007980A994018694638
:100CE0004978017031B2002903D42B214170871C4F
:100CF00003E02D224270871C4E42002414AD3000C8
:100D000008E00A2100F070FD32AA03C2297032986F
:100D1000641C6D1C00B20028F3DC012C08DC684662
:100D2000407820210143652902D1302038707F1C92
:100D3000002C09D1302038707F1C07E0641E14A8F5
:100D4000005D303038707F1C002CF7DC07980A9962
:100D50004018381A0B9045E021B232B291421ADAAB
:100D600022B2159900F086FB24B20A9800190A9065
:100D7000391B0D91002D05DC04A9098F149AC9B205
:100D8000114206D069460978079A11540B98401C05
:100D90000B900E9526E0159900F06CFB0A98C0198F
:100DA0000A90A41B002D05DC04A9098F149AC9B26E
:100DB000114205D0411C0A9169460978079A1154DD
:100DC00020B2854200DA2C0022B21598C11907988A
:100DD0000A9BC01800F04EFB24B20A9800190A9032
:100DE000281B0D9004A83821405C142101401029D3
:100DF00001D0FFF7D9FB09980A9940180D994018BE
:100E00000B9940180E9940181199884201DBFFF7A1
:100E1000CBFB081A0C90FFF7C7FB04AA3A20105C22
:100E2000622808D068280ED06A2814D06C281DD0FB
:100E3000712810D01AE0369801680868091D369BA1
:100E40001960C0B218E0369801680868091D369B21
:100E5000196080B210E036980068C31D07208343F4
:100E60003698036003CB369C236006E03698016811
:100E70000868091D369B1960002104AB03C3108F5D
:100E80001499C0B208425BD004A803C8002901D15C
:100E9000002855D0684600782021014378294FD199
:100EA000099822A930220A54401C421C09926A4621
:100EB00012780A5444E004AA3A20105C622808D050
:100EC00068280ED06A2814D06C281DD0712810D044
:100ED0001AE0369801680868091D369B196040B20F
:100EE00018E0369801680868091D369B196000B241
:100EF00010E036980068C31D0720834336980360CE
:100F000003CB369D2B6006E0369801680868091D02
:100F1000369B1960C11704AB03C3002902DA099894
:100F20002D2109E0108F204202D009982B2103E0E7
:100F3000C00705D50998202122AA1154401C099008
:100F400022A809994018079068460178FFF76CFBC2
:100F500004A83A21405C6C280BD0012009903698F7
:100F600000680168001D369A106022A80170FFF722
:100F70001BFB369800680168001D369A10600091CE
:100F800000200190C04310906A46FFF737FB012014
:100F90000990252022A9087068460078002801D110
:100FA000FFF702FB0994684600784870FFF7FCFAE7
:100FB000FEB506000D001700686B6969401A296AC2
:100FC000401AA969401A696A401AE969401AA96A6F
:100FD000401A01903820285C400710D42020694630
:100FE0000870019800280ADD019C01236A46290047
:100FF000300000F081F9002860D1641EF5D13A007C
:101000006B692900300000F077F9002856D13027AD
:10101000684607702C6A002C09DD01236A46290006
:10102000300000F069F9002848D1641EF5D1AB69A1
:10103000EA682900300000F05FF900283ED16846D8
:1010400007706C6A002C09DD01236A462900300014
:1010500000F052F9002831D1641EF5D1EB69E8683F
:10106000A96942182900300000F046F9002825D16E
:1010700068460770AC6A002C09DD01236A46290026
:10108000300000F039F9002818D1641EF5D138205D
:10109000285C400710D52020694608700198002878
:1010A0000ADD019C01236A462900300000F024F982
:1010B000002803D1641EF5D1002001E00020C043C8
:1010C00003B0F0BDF0B5A7B004000D0016002F6B03
:1010D000002F00D5854F00F004FD696B081803A9A7
:1010E000002200230CC1812838D202920694009578
:1010F000002425E0AF4234DB009840694019812884
:101100000BD30098446307AA00990698FFF750FF95
:101110000290002825D40098446100984069059009
:101120002A0001A907A8059BC01800F0A3F905989B
:101130004019009948613068002812D0361D7F1B85
:10114000002F0EDD03AA316801A800F02AF905007E
:1011500004D430680028CDD16D1ECBD50020C0430B
:101160000EE0069B009C0298002804D107AA2100EB
:101170001800FFF71DFF002802D1002161616163A3
:1011800027B0F0BDF2B586B0040025696F2901D102
:10119000082707E00846FFF7B9F8782801D00A27A2
:1011A00000E010273C2603CC083C04AA03C26A4690
:1011B000127E642A03D06A46127E692A09D1002968
:1011C00007DA04A803C800220023121A8B4104A8DE
:1011D0000CC004A803C800290DD100280BD1206B36
:1011E000002808D1082F3DD13820205C000739D5D0
:1011F0003B26302035E00294009504A830C8761EC6
:101200000196200029003A00FB1700F06FFC3032F5
:10121000D0B23A280DDA00988255200029003A0011
:10122000FB1700F063FC04000D0007D1002C05D172
:101230000AE06846007E8218AF32ECE70298C06888
:10124000009989198842DAD3029C009D082F09D1A0
:101250003820205C000705D5A85D302802D0761E16
:101260003020A8553C20801BA061A919E160216BAA
:10127000884206DA081A2062208F1D490140218722
:1012800010E000290ED53821615C14220A40102A92
:1012900008D1616B6269891A226A891A081A0028C2
:1012A00000DD206207B0F0BDF8B50026114F040044
:1012B0000D00009214E0C00707D532003B0020006B
:1012C000290000F04CFB04000D0000984010009035
:1012D0003000390032003B0000F041FB06000F00F7
:1012E00000980028E7D120002900F4BDFFFFFF7F10
:1012F000EFFF000000002440F8B50024002B11D0BF
:1013000007000E0014001D002178B068B847B060D7
:10131000002809D0F06A401CF0620020641C6D1E99
:10132000F2D104002000F2BD0020C043F9E72E00F6
:101330002048704730B45368D41803E05B1C491E42
:10134000641C401C042B06DA002904D005782570A3
:101350000578002DF2D1536030BC704738B50029B4
:101360000ED01D001400FFF7E5FF616820006A6BD6
:1013700090470122D243811A02D0491E02D004E0D4
:10138000012000E00020C04332BD0021616032BD79
:1013900080B5DA6B904702BD80B5064BFFF7DEFFE4
:1013A00002BD80B5034BFFF7F3FF02BD0248704753
:1013B000000000003C00002004000020C9B20278B8
:1013C0008A4203D0401C002AF9D100207047430014
:1013D00080B5002801D100BF07A006490B68002B8B
:1013E00003D022220021984701E000F0BDFB22201B
:1013F00002BD000028010020636F6E737472616982
:101400006E742068616E646C65723A20626164205B
:101410006D65737361676500431C0178401C094268
:10142000FBD1C01A70470000C9B2521E05D3037821
:10143000401C8B42F9D1401E7047002070470000CD
:1014400070B4103A03D378C9103A78C0FBD253076E
:1014500001D318C918C001D508C908C0D20704D3E0
:101460000B880380891C801C002A01D50B7803702F
:1014700070BC70478B0701D18307E1D0124205D0C1
:101480000B78491C0370401C521EF9D1704710B5EF
:10149000144600F002F8226010BD4A0053155B1C90
:1014A00008D0520D06D003231B02FE3AD21A1305B0
:1014B000C91A70470022704730B4012464054D00FA
:1014C000EC420BD85D00EC4208D80C001C436400D1
:1014D0000443144304D2994200D1904230BC704777
:1014E000FCD08B42FAD18242F8E730B40124640583
:1014F0004D00EC420BD85D00EC4208D80C001C43B8
:1015000064000443144304D28B4200D1824230BCB5
:101510007047FCD09942FAD19042F8E7124217D4B2
:101520000023DB435B0D9C464B005B0D06D06345FF
:1015300004D09B18634502D2120589187047624691
:10154000090D11430905002000B500BF00BF00BD13
:1015500052424B005B0DF1D05B1C5B05EED25B0D84
:10156000934102D91205891A70470BD10B031B1343
:10157000C90FC907821C002043411343E4D9120557
:101580001143E1E7C90FC9070020DDE7F4464A1817
:1015900005D200F00FF801D580174008604700F031
:1015A00009F80121C907884200D908004042604774
:1015B0004A1812D2400DC90208430121C907084345
:1015C000520D40210901521A521C06D452421F32B8
:1015D00001D4D0407047C01770470020704700000A
:1015E000010042221201D21E004207D002D4521E34
:1015F0000018FCD5C10A4005120589187047000083
:101600000100EED54042F446FFF7EBFF0122D2077E
:10161000114360478B4200D1824205D984461000B5
:1016200062468C4619006346DF184C18640D7F0D26
:101630003AD0661C760537D0E61B352E34DCDB024B
:101640002B43DB0A0C0DC9022943C912202E0DDBE6
:101650001700203E06D01F00F741F3405F400026F0
:10166000012A7741C01871410DD217E01700F741E8
:10167000F2405740F3415A40B340F3405A400026ED
:10168000801859410AD3A21C52050FD0C207012F5E
:10169000724117004008CB0718434908641C240511
:1016A0004208AF4170416141F0BC7047641C2105A4
:1016B0000020F9E76B4010E06B40ABE7F742F3D155
:1016C000E943F1E72442EFD100200021ECE7F0B438
:1016D0000125ED070F005F40EED40C00871A9C41F6
:1016E00005D2C01BA141D219634169406B40AE0ACB
:1016F000DF184C18F442E1D2640D7F0DE2D0E61BF6
:10170000362ED1DCDB022B43DB0AA4460C0DC902CA
:101710002943C90A012E28DC04D1D6075208DF0765
:101720003A435B08EF0A76429041994114D039421E
:101730003BD1B61940414941761C394204D1761C4F
:10174000001849413942FAD0B9436746B74208D92F
:10175000A41B24052143A7E70042EAD13642E8D181
:10176000A2E7E40AE10700209EE7202E0BDD203EE1
:101770001F00F340F7415F40012A002257417E429B
:10178000984191410BE01700F741F2405740F34177
:101790005A40B340F3405A407E42904199410A0377
:1017A00003D2641EB619404149410027641E240536
:1017B0004208AE4178416141F0BC7047F4460028D0
:1017C00004D4494200F013F84042604740420029E7
:1017D00005D45FD000F00BF84042494260474942CF
:1017E00000F005F84942604703460B43E6D4002267
:1017F000030A8B420BD203098B4219D243088B4256
:101800002ED2411A00D20146524110467047FF22A3
:1018100009023FD012068B4205D3121209028B42F5
:1018200001D31212090203098B4219D300E0090AFD
:10183000C3098B4201D3CB01C01A524183098B42A9
:1018400001D38B01C01A524143098B4201D34B0192
:10185000C01A524103098B4201D30B01C01A5241F5
:10186000C3088B4201D3CB00C01A524183088B427C
:1018700001D38B00C01A524143088B4201D34B0065
:10188000C01A5241884200D3401A5241CFD2014679
:101890001046704708B500F06DF908BDF0B40E00B1
:1018A0005E400125ED072E40B446AE0ADF184C1805
:1018B000F4423BD2F74241D2640D43D07F0D38D081
:1018C000E41BC902DB0229432B43CF0ADB0A0600D3
:1018D000B61A9F4104D2641EB6197F41B6185F4103
:1018E0006812800D24180018844222DCE80C0021C4
:1018F000B6197F41B61A9F4102D2B6185F413F1C0C
:1019000040414941F4D3241C21DD2405B6197F410F
:10191000B61A9F4105D33743C60737430026012F28
:101920007041614166463143F0BC7047FCD1F742DB
:1019300005D20020C14349054908F3E704D000203F
:10194000C143F1E77F0DFAD000206146ECE7244265
:10195000FAD1401C61410F03F6D30020E2E7F0B555
:101960000E005E400125ED072E40B446AE0ADF189A
:101970004C18F44208D2F7420ED2640D01D07F0D0C
:1019800012D100206146F0BD05D1F74201D87F0D8C
:1019900005D10020C143F0BDFBD1640DF9D000207A
:1019A000C143490549088FE0E419C902DB02294314
:1019B0002B43DB0A460DC00231438E4630B487B25A
:1019C00095B27D432E0CADB2140C7C43A419260CA9
:1019D000240425439CB27C43A419190C7943270C99
:1019E000C919A4B20F043C43090C000C97B2474339
:1019F0002E0CBE193543ADB2170C4743360CBF1938
:101A0000A6B2BF193E043543240C3E0C36199FB2D2
:101A10004743BF19BCB23E0C89191F0C47437F18BE
:101A20003E043443390C704680B297B247432E0CC3
:101A3000BE193543ADB2170C4743360CBF19A6B2D9
:101A4000BF193E043543240C3E0C36199FB2474360
:101A5000BF19BCB23E0C89191F0C47437F183E04C6
:101A60003443390C77463F0C90B278432E0C8019E2
:101A70000604ADB22E43050CA0B22D18120C7A4309
:101A80005019020C80B2240CA4189AB27A4312198D
:101A900014042043120C89181B0C7B43C91830BC5A
:101AA000EF0A394203D1B61940414941641E6F1211
:101AB000BF0DE41B0BDBFF19BC4211DA2405002724
:101AC0004208AE417841614166463143F0BD641C35
:101AD00005D1401C6141CF0201D34908F4E750E72A
:101AE0005DE780B5FFF724FC006C02BD12422DD0EB
:101AF000994231D970B500251B4209D00C00002154
:101B000012E01100FFF773FE0A000021002370BDF0
:101B10000942F6D00024012649186441944200D3BA
:101B2000A41A7641F8D33100012601E0764109D2AA
:101B3000001864416D41A41A9D41F7D2A4185D417B
:101B4000B619F5D3300022002B0070BD1B42CFD157
:101B500008B500F011F808BD01D19042CAD20200C8
:101B60000B0000210020704780B5012000F006F82E
:101B700001BD0000704700007047000020210903EC
:101B800026311820ABBEF9E7F8B504002078C0B2C2
:101B9000002804D02068FF218843002803D06C214E
:101BA000AA4800F005FB01262068304000280BD031
:101BB000A7480168082291430160016810229143FF
:101BC00001600020A34908602078000712D5206A30
:101BD000802806D0206A002803D07C219B4800F092
:101BE000E7FA9B4801688022914301600168226AFC
:101BF0000A43026002272068384000284DD0A068C0
:101C0000202806D0A068002803D087218F4800F044
:101C1000CFFAE068202806D0E068002803D08821A9
:101C20008A4800F0C5FA2069002818D020690128E8
:101C300015D02069022812D0206903280FD020690E
:101C400004280CD02069052809D02069062806D070
:101C50002069072803D089217C4800F0A9FAE068B0
:101C6000202815D17A48016820220A430260904A50
:101C70001168072081432069084310608D490A6874
:101C800020239A43A36813430093009A0A6004E058
:101C90006F4801682022914301602078400760D599
:101CA0006069002806D06069102803D0A721674822
:101CB00000F07EFAA069402806D0A069002803D071
:101CC000A821624800F074FAE069602824D0E06935
:101CD000682821D0E06970281ED0E06978281BD0E0
:101CE000E069002818D0E069082815D0E0691028BC
:101CF00012D0E06918280FD0E06920280CD0E069E4
:101D0000282809D0E069302806D0E069382803D0B7
:101D1000A9214E4800F04CFAA06940281CD14C493A
:101D20000868402202430A60614B1A6878208243A7
:101D3000E069104318606269102A03D10A688023A1
:101D400013430B605B490A6810239A43636913438A
:101D50000093009A0A6004E03D48016840229143E4
:101D6000016020252068284000281FD0606A0028D4
:101D700006D0606A022803D0CD21344800F018FA5A
:101D8000A06A002806D0A06A012803D0CE212F48DF
:101D900000F00EFA4748016802229143626A0A4342
:101DA000009200990160A06A00F054FA2068304067
:101DB000002854D0606800280FD0606801280CD03B
:101DC0006068022809D06068032806D0606804288B
:101DD00003D0DD211D4800F0EBF96068002803D135
:101DE00060681C4908603AE0606801280CD1184816
:101DF000016880220A4302602F4800680007FBD573
:101E00006068144908602AE0606802280DD1104813
:101E1000016840220A4302602848006830400028D8
:101E2000FAD060680B49086019E06068042813D193
:101E3000074801680D4305602048006838400028C5
:101E4000FAD060680349086009E000BFD42A0000A6
:101E50000C420140043E0140606819490860207846
:101E6000400610D5E06A002804D0E06AFF21891CF2
:101E7000884204D3FF211831124800F099F9E06A32
:101E8000401E114908602078000610D5206B0028FC
:101E900004D0206BFF21891C884204D3FF2120310C
:101EA000084800F085F9206B401E79490860F1BDB3
:101EB00024420140084001400C400140544201408E
:101EC000043E0140D42A0000083E0140F8B5072036
:101ED00075490E68064075490968CFB27F1C002E0F
:101EE00007D0022E11D00AD3042E00D18AE072D37B
:101EF000CCE0C820C0033900FFF779FCC7E0C82058
:101F0000C0033900FFF773FCC1E06948006878211D
:101F100001400091009800282ED0082832D01028C7
:101F200036D018283AD020283DD0282841D0302853
:101F300044D0382848D0602806D068280AD07028B5
:101F40000ED0782812D044E0C82000043900FFF7F2
:101F50004EFC3FE0FA2000043900FFF748FC39E06E
:101F6000962040043900FFF742FC33E0AF204004E4
:101F70003900FFF73CFC2DE0C82040043900FFF792
:101F800036FC27E0E12040043900FFF730FC21E077
:101F9000FA2040043900FFF72AFC1BE045483900CD
:101FA000FFF725FC16E0962080043900FFF71FFCA0
:101FB00010E041483900FFF71AFC0BE0AF20800425
:101FC0003900FFF714FC05E03C483900FFF70FFC2F
:101FD00000E000205BE03A4800688007800F0500C1
:101FE000002D05D1802000023900FFF700FC08E039
:101FF000012D05D1802080013900FFF7F8FB00E0BA
:10200000002044E02A49096808400400002C0BD055
:10201000022C15D00ED3042C1ED017D3062C27D09B
:1020200020D3072C2AD02FE0C82040043900FFF726
:10203000DEFB2AE0C82000043900FFF7D8FB24E0CB
:10204000C820C0033900FFF7D2FB1EE0C820800380
:102050003900FFF7CCFB18E0C82040033900FFF738
:10206000C6FB12E0C82000033900FFF7C0FB0CE0FC
:10207000C820C0023900FFF7BAFB06E0C820800282
:102080003900FFF7B4FB00E0002000E00020F2BDC3
:102090000C3E014080B5FFF719FF0A490968C9B233
:1020A000491CFFF7A4FB02BD043E0140083E01406D
:1020B000244201400000260200008A020000EE02D5
:1020C000584801400C3E014000B58DB0C32000903F
:1020D0000420019000200490029020200390012011
:1020E0000B9002200C906846FFF74EFD0DB000BD2E
:1020F000F8B584B00025280025490870254E3560C4
:1021000025480560FFF7E0FF00F0C4F8234C2000ED
:1021100000F0F4F8962080010390029503200090CF
:10212000062001906946200000F00FF9012280216D
:102130004900200000F08EF901220821200000F063
:1021400089F90021062000F0BDFA154F39782000EA
:1021500000F01BFA3068401C30603068042802D25E
:1021600000F0DAFAF9E70F4800F0DEFA012008493A
:102170000870042D09D2785D0B49495D884202D070
:102180000A4800F0D1FA6D1CF3E700F0C5FAFCE74D
:102190002C0100201C010020240100200018014017
:1021A00000000020CC2C000020010020742C000036
:1021B00000B5FEE710B50400002C05D0012C03D0BB
:1021C0001D211E48FFF7F4FF002C06D01C481D49B6
:1021D00008601D481E49086005E019481949086053
:1021E0001A481B49086010BD00B5194800688007EF
:1021F000FBD400BDF8B505000C001700A807800F40
:10220000002803D04E210D48FFF7D2FFFFF7ECFF67
:102210000020FFF7CFFF002630003900C0B2C9B25E
:10222000884205D220682860241D2D1D761CF3E706
:102230000120FFF7BFFFFFF7D7FFF1BD402B0000E4
:10224000A55AA55A444801405AA55AA55BA55AA5C6
:102250004848014070B50400002C06D0012C04D081
:10226000A92189000948FFF7A3FF094D2E68032023
:1022700086432643FFF7B8FF0020FFF79BFF2E6041
:102280000120FFF797FFFFF7AFFF70BD402B000065
:102290005848014080B5FFF7FDFEE1214902FFF7F4
:1022A000A6FA1249086001201149086001BD70B505
:1022B00003001000002282420BD28C5C0D4D2C607A
:1022C000521C20240C4D2E682640002EF9D02C6084
:1022D000F1E770BD10B5074A10602022064B1C685C
:1022E0001440002CF9D01A6010BD0000B018014055
:1022F000A8180140A0180140A418014038B50400F6
:10230000002500954D48844212D04D4884420FD09C
:102310004C4884420CD04C48844209D04B488442FB
:1023200006D04B48844203D021216A48FFF740FF82
:10233000206800900098401C00903F20E060BC2086
:10234000606025616561A56031BDFEB505000C00CA
:102350003A48854212D03A4885420FD039488542E2
:102360000CD03948854209D03848854206D03848D3
:10237000854203D049215748FFF71AFF207880078C
:10238000800F002804D0206803218843002803D050
:102390004A215048FFF70CFF606802280FD06068A0
:1023A00006280CD060680A2809D060680E2806D07C
:1023B0006068002803D04B214648FFF7F9FEA0686B
:1023C000002806D0A068012803D04C214148FFF71F
:1023D000EFFEE06896214900884203D3E0683E4959
:1023E000884203D34D213B48FFF7E2FEA868032152
:1023F000884321680143029168690F21884361681D
:102400000143A0680843019001986861FFF742FE0C
:1024100006003000E168FFF7EAF90700E0684008CD
:1024200000903000E168FFF7E2F90098884200D29E
:102430007F1C2F610298A860F7BD000000180140C2
:1024400020180140401801406018014080180140E8
:10245000A018014070B504000D00160068488442C1
:1024600012D0684884420FD0674884420CD0674835
:10247000844209D06648844206D06648844203D02C
:10248000BA211448FFF794FEDC20400028400028C1
:1024900003D061482840002803D0BB210D48FFF736
:1024A00087FE3000C0B2002807D03000C0B201283B
:1024B00003D0BC210748FFF77BFE3000C0B20128E3
:1024C00003D1A0682843A06002E0A068A843A060F0
:1024D00070BD0000642A000001800C0038B50400C3
:1024E0000D004748844212D0464884420FD04648E7
:1024F00084420CD04548844209D04548844206D0E5
:102500004448844203D0D7214448FFF751FE202D90
:102510000BD0102D09D0082D07D0042D05D0022D89
:1025200003D0D8213D48FFF743FEE068284000284B
:1025300001D0012000E0002032BD38B504000D00BC
:102540002F48844212D02F4884420FD02E48844214
:102550000CD02E48844209D02D48844206D02D4804
:10256000844203D0F2212D48FFF722FE3E2028406E
:10257000002804D028003E218843002803D0F321FE
:102580002648FFF715FEE56031BD38B504000D00A3
:102590001B48844213D01B48844210D01A488442FE
:1025A0000DD01A4884420AD01948844207D01948ED
:1025B000844204D0FF21891C1848FFF7F9FD280048
:1025C000C0B2206031BD10B504000D48844213D064
:1025D0000C48844210D00C4884420DD00B488442F1
:1025E0000AD00B48844207D00A48844204D087218D
:1025F00049000A48FFF7DCFD2068C0B210BD0000AA
:1026000000180140201801404018014060180140A6
:1026100080180140A018014047FEFFFF642A000017
:1026200000B5010049B2002905D40121C206D20E2D
:102630009140344A116000BD00B5010049B2002943
:1026400005D40121C206D20E91402F4A116000BD6F
:10265000F0B5020052B2002A17D418222B4B040006
:1026600064B2A408A4001C59FF25C6001640B5405A
:10267000AC438D01EDB2C6003240954025430200C7
:1026800052B2920892009D501BE00F22204B18245A
:1026900005006DB21540083DAD08AE0005006DB2F5
:1026A0002A40083A920892009A58FF25C70027400E
:1026B000BD40AA438D01EDB2C7003C40A540154383
:1026C0009D51F0BD38B505000C00280040B200282F
:1026D00003D521210F48FFF76BFD042C03D32221E2
:1026E0000C48FFF765FD280040B2FFF7A5FF210069
:1026F000280040B2FFF7ACFF280040B2FFF790FF80
:1027000031BD000000E100E080E200E000E400E014
:102710001CED00E0F4290000014802490860704700
:1027200055AAAA55484001400EB4C0B5020003A8FE
:1027300001900020009001AB0121044878440C3046
:10274000FDF7E8FD029906B0084700BFD505000077
:10275000F8B52B4807683800C5432A480068854209
:102760000AD02948006807003800C1430D002748F7
:102770000068854200D0FEE70024BC423ED20C2017
:10278000604323494018006806000C20604321493B
:1027900040180068009000983018C1430D000C20CC
:1027A00060431D4940180068854217D00C206043E3
:1027B0001A494018006806000C2060431849401868
:1027C0000068009000983018C1430D000C20604351
:1027D000144940180068854200D0FEE7124886423E
:1027E00008D31248864205D2012269463000FFF71D
:1027F00001FD01E000983060641CBEE7F1BD0000FF
:10280000000408000404080000050800040508008E
:10281000080408000C04080010040800080508005B
:102820000C05080010050800004801400150014057
:1028300000B5FEE700B5FEE7704770477047704788
:102840007047704770477047704738B5174C202164
:102850002000FFF743FE002810D020212000FFF7C2
:102860006CFE134D2868042808D212482968415C80
:102870002000FFF78AFE2868401C28600221200003
:10288000FFF72CFE002810D002212000FFF755FE94
:10289000094D2868042808D22000FFF794FE074954
:1028A0002A6888542868401C286031BD00180140FF
:1028B0001C01002000000020240100202001002035
:1028C0007047704770477047704770477047704750
:1028D0007047704770477047704770477047704740
:1028E0007047704770477047686A6C747A4C000094
:1028F0007072696E74665F733A20256E2064697326
:10290000616C6C6F776564007072696E74663A20F2
:1029100062616420256E20617267756D656E74005A
:102920007072696E74665F733A2062616420257309
:1029300020617267756D656E740000000000000014
:102940007072696E74665F733A2062616420256CF0
:102950007320617267756D656E7400000000000081
:102960006E616E004E414E00696E6600494E460033
:102970003000F1B401684118436858080A180098FB
:102980008068DB0701D54B46C01891422DD00D78E9
:10299000491C032403262E4002D10E78F61C491C44
:1029A0002B090F2B07D10B780F33491C03E00F784D
:1029B000491C0770401C761EF9D1002BE5D00E781B
:1029C000491CAD082C40032C01D10C78491C240271
:1029D0003419654244190025AE1E9E42D5D0267892
:1029E000641C0670401C6D1CF6E700980C30F2BCAD
:1029F00070470000443A5C776F726B5C5638353034
:102A000030505CE5BC80E58F91E5B7A5E585B75C06
:102A100044726976654C6962726172795C563835C8
:102A20005858505F4C69625F56322E355C563835C7
:102A30005858505F4C69625F56322E355C4C696263
:102A40007261726965735C434D5349535C6465768A
:102A50006963655C6C69625F636F727465782E632D
:102A600000000000443A5C776F726B5C563835307A
:102A700030505CE5BC80E58F91E5B7A5E585B75C96
:102A800044726976654C6962726172795C56383558
:102A90005858505F4C69625F56322E355C56383557
:102AA0005858505F4C69625F56322E355C4C6962F3
:102AB0007261726965735C4C69625F4472697665C4
:102AC000725C7372635C6C69625F756172742E63B1
:102AD00000000000443A5C776F726B5C563835300A
:102AE00030505CE5BC80E58F91E5B7A5E585B75C26
:102AF00044726976654C6962726172795C563835E8
:102B00005858505F4C69625F56322E355C563835E6
:102B10005858505F4C69625F56322E355C4C696282
:102B20007261726965735C4C69625F447269766553
:102B3000725C7372635C6C69625F636C6B2E6300C2
:102B4000443A5C776F726B5C5638353030505CE5D8
:102B5000BC80E58F91E5B7A5E585B75C44726976E1
:102B6000654C6962726172795C5638355858505FAD
:102B70004C69625F56322E355C5638355858505F76
:102B80004C69625F56322E355C4C696272617269C3
:102B900065735C4C69625F4472697665725C7372DE
:102BA000635C6C69625F7274632E630080B50D496B
:102BB000794430310C4A7A442E32914203D00B4989
:102BC000FFF788FB02BD6946087001220120FFF76C
:102BD0006EFB012802D16846007802BD0020C04388
:102BE00002BD00BF1CD4FFFF18D4FFFF84000020EB
:102BF00070B40123002413E00168001D194202D0C3
:102C00004D466918491E0C60091D121F042AFAD28C
:102C10000D00960701D50C80AD1C1A4000D02C7019
:102C20000268001D002AE7D170BC704710B5074943
:102C300079441831064C7C44163404E0081D0A68B7
:102C4000891888470100A142F8D110BD0800000092
:102C5000240000009DFFFFFF64000000CC00002066
:102C6000000000000FFDFFFFCE00000096000000F6
:102C7000000000205541525430205265636569764A
:102C800065206461746173206572726F72210D0A30
:102C90000000000000F00DF8002801D0FFF7C6FF8B
:102CA00000BF00BF002000BF00BFFFF721FA00F007
:102CB00002F80120704780B500F002F801BD000065
:102CC00007463846FEF75AFFFBE7000055415254CD
:102CD000302073656E642064617461732066696E70
:102CE000697368210D0A00000548014603B468466F
:102CF00080F3098800BF00BF00BF00BFFFF7CAFF15
:102D0000A5EDF5FEFF2902D90020C04370470170F0
:102D1000012070470078401E8041C043C00F7047BB
:102D200038B505000C002000FFF740FFA04200D09E
:102D30000025280032BDF00607123456782614000C
:102D4000000452FF01E32E131410010000CE14F012
:102D500007160100000004000020000143152D2A81
:102D600043052D3C2101100302040101CC44200243
:102D70001C0100200852CC50610812C808F212B49D
:012D800064EE
:04000005000020F1E6
:00000001FF
